{
  "contractName": "RoomFactory",
  "abi": [
    {
      "inputs": [
        {
          "internalType": "uint256",
          "name": "",
          "type": "uint256"
        }
      ],
      "name": "rooms",
      "outputs": [
        {
          "internalType": "contract Room",
          "name": "",
          "type": "address"
        }
      ],
      "stateMutability": "view",
      "type": "function",
      "constant": true
    },
    {
      "inputs": [
        {
          "internalType": "string",
          "name": "name",
          "type": "string"
        },
        {
          "internalType": "string",
          "name": "url",
          "type": "string"
        },
        {
          "internalType": "string",
          "name": "imageURL",
          "type": "string"
        },
        {
          "internalType": "string",
          "name": "description",
          "type": "string"
        },
        {
          "internalType": "uint256",
          "name": "roomPrice",
          "type": "uint256"
        }
      ],
      "name": "createRoom",
      "outputs": [],
      "stateMutability": "nonpayable",
      "type": "function"
    },
    {
      "inputs": [],
      "name": "roomsCount",
      "outputs": [
        {
          "internalType": "uint256",
          "name": "",
          "type": "uint256"
        }
      ],
      "stateMutability": "view",
      "type": "function",
      "constant": true
    },
    {
      "inputs": [],
      "name": "getRooms",
      "outputs": [
        {
          "internalType": "contract Room[]",
          "name": "",
          "type": "address[]"
        }
      ],
      "stateMutability": "nonpayable",
      "type": "function"
    }
  ],
  "bytecode": "0x608060405234801561001057600080fd5b5061154b806100206000396000f3fe60806040523480156200001157600080fd5b5060043610620000525760003560e01c80631bae0ac8146200005757806341b82f3f146200008d578063cb7beb6714620000af578063d08f6a6b14620000cf575b600080fd5b6200007560048036038101906200006f9190620003fc565b620000f1565b60405162000084919062000555565b60405180910390f35b6200009762000131565b604051620000a69190620005fb565b60405180910390f35b620000cd6004803603810190620000c7919062000316565b6200013d565b005b620000d9620001ef565b604051620000e8919062000531565b60405180910390f35b600081815481106200010257600080fd5b906000526020600020016000915054906101000a900473ffffffffffffffffffffffffffffffffffffffff1681565b60008080549050905090565b600085858585853360405162000153906200027f565b620001649695949392919062000572565b604051809103906000f08015801562000181573d6000803e3d6000fd5b5090506000819080600181540180825580915050600190039060005260206000200160009091909190916101000a81548173ffffffffffffffffffffffffffffffffffffffff021916908373ffffffffffffffffffffffffffffffffffffffff160217905550505050505050565b606060008054806020026020016040519081016040528092919081815260200182805480156200027557602002820191906000526020600020905b8160009054906101000a900473ffffffffffffffffffffffffffffffffffffffff1673ffffffffffffffffffffffffffffffffffffffff16815260200190600101908083116200022a575b5050505050905090565b610d0e806200080883390190565b6000620002a46200029e8462000641565b62000618565b905082815260208101848484011115620002bd57600080fd5b620002ca84828562000732565b509392505050565b600082601f830112620002e457600080fd5b8135620002f68482602086016200028d565b91505092915050565b6000813590506200031081620007ed565b92915050565b600080600080600060a086880312156200032f57600080fd5b600086013567ffffffffffffffff8111156200034a57600080fd5b6200035888828901620002d2565b955050602086013567ffffffffffffffff8111156200037657600080fd5b6200038488828901620002d2565b945050604086013567ffffffffffffffff811115620003a257600080fd5b620003b088828901620002d2565b935050606086013567ffffffffffffffff811115620003ce57600080fd5b620003dc88828901620002d2565b9250506080620003ef88828901620002ff565b9150509295509295909350565b6000602082840312156200040f57600080fd5b60006200041f84828501620002ff565b91505092915050565b6000620004368383620004bd565b60208301905092915050565b6200044d81620006cc565b82525050565b6000620004608262000687565b6200046c8185620006aa565b9350620004798362000677565b8060005b83811015620004b057815162000494888262000428565b9750620004a1836200069d565b9250506001810190506200047d565b5085935050505092915050565b620004c8816200070a565b82525050565b620004d9816200070a565b82525050565b6000620004ec8262000692565b620004f88185620006bb565b93506200050a81856020860162000741565b6200051581620007dc565b840191505092915050565b6200052b8162000700565b82525050565b600060208201905081810360008301526200054d818462000453565b905092915050565b60006020820190506200056c6000830184620004ce565b92915050565b600060c08201905081810360008301526200058e8189620004df565b90508181036020830152620005a48188620004df565b90508181036040830152620005ba8187620004df565b90508181036060830152620005d08186620004df565b9050620005e1608083018562000520565b620005f060a083018462000442565b979650505050505050565b600060208201905062000612600083018462000520565b92915050565b60006200062462000637565b905062000632828262000777565b919050565b6000604051905090565b600067ffffffffffffffff8211156200065f576200065e620007ad565b5b6200066a82620007dc565b9050602081019050919050565b6000819050602082019050919050565b600081519050919050565b600081519050919050565b6000602082019050919050565b600082825260208201905092915050565b600082825260208201905092915050565b6000620006d982620006e0565b9050919050565b600073ffffffffffffffffffffffffffffffffffffffff82169050919050565b6000819050919050565b600062000717826200071e565b9050919050565b60006200072b82620006e0565b9050919050565b82818337600083830152505050565b60005b838110156200076157808201518184015260208101905062000744565b8381111562000771576000848401525b50505050565b6200078282620007dc565b810181811067ffffffffffffffff82111715620007a457620007a3620007ad565b5b80604052505050565b7f4e487b7100000000000000000000000000000000000000000000000000000000600052604160045260246000fd5b6000601f19601f8301169050919050565b620007f88162000700565b81146200080457600080fd5b5056fe608060405260405162000d0e38038062000d0e833981810160405281019062000029919062000239565b856000908051906020019062000041929190620000e9565b5084600190805190602001906200005a929190620000e9565b50836002908051906020019062000073929190620000e9565b5082600390805190602001906200008c929190620000e9565b508160048190555080600560006101000a81548173ffffffffffffffffffffffffffffffffffffffff021916908373ffffffffffffffffffffffffffffffffffffffff160217905550600160078190555050505050505062000515565b828054620000f79062000406565b90600052602060002090601f0160209004810192826200011b576000855562000167565b82601f106200013657805160ff191683800117855562000167565b8280016001018555821562000167579182015b828111156200016657825182559160200191906001019062000149565b5b5090506200017691906200017a565b5090565b5b80821115620001955760008160009055506001016200017b565b5090565b6000620001b0620001aa846200035c565b62000333565b905082815260208101848484011115620001c957600080fd5b620001d6848285620003d0565b509392505050565b600081519050620001ef81620004e1565b92915050565b600082601f8301126200020757600080fd5b81516200021984826020860162000199565b91505092915050565b6000815190506200023381620004fb565b92915050565b60008060008060008060c087890312156200025357600080fd5b600087015167ffffffffffffffff8111156200026e57600080fd5b6200027c89828a01620001f5565b965050602087015167ffffffffffffffff8111156200029a57600080fd5b620002a889828a01620001f5565b955050604087015167ffffffffffffffff811115620002c657600080fd5b620002d489828a01620001f5565b945050606087015167ffffffffffffffff811115620002f257600080fd5b6200030089828a01620001f5565b93505060806200031389828a0162000222565b92505060a06200032689828a01620001de565b9150509295509295509295565b60006200033f62000352565b90506200034d82826200043c565b919050565b6000604051905090565b600067ffffffffffffffff8211156200037a5762000379620004a1565b5b6200038582620004d0565b9050602081019050919050565b60006200039f82620003a6565b9050919050565b600073ffffffffffffffffffffffffffffffffffffffff82169050919050565b6000819050919050565b60005b83811015620003f0578082015181840152602081019050620003d3565b8381111562000400576000848401525b50505050565b600060028204905060018216806200041f57607f821691505b6020821081141562000436576200043562000472565b5b50919050565b6200044782620004d0565b810181811067ffffffffffffffff82111715620004695762000468620004a1565b5b80604052505050565b7f4e487b7100000000000000000000000000000000000000000000000000000000600052602260045260246000fd5b7f4e487b7100000000000000000000000000000000000000000000000000000000600052604160045260246000fd5b6000601f19601f8301169050919050565b620004ec8162000392565b8114620004f857600080fd5b50565b6200050681620003c6565b81146200051257600080fd5b50565b6107e980620005256000396000f3fe6080604052600436106100915760003560e01c8063ad34d96d11610059578063ad34d96d1461016d578063b90497e014610198578063c398e9b2146101c3578063c9dc0556146101ee578063dff7373a146101f857610091565b806306fdde031461009657806338af3eed146100c15780635600f04f146100ec5780636c036162146101175780637284e41614610142575b600080fd5b3480156100a257600080fd5b506100ab610223565b6040516100b89190610679565b60405180910390f35b3480156100cd57600080fd5b506100d66102b1565b6040516100e3919061065e565b60405180910390f35b3480156100f857600080fd5b506101016102d7565b60405161010e9190610679565b60405180910390f35b34801561012357600080fd5b5061012c610365565b604051610139919061069b565b60405180910390f35b34801561014e57600080fd5b5061015761036b565b6040516101649190610679565b60405180910390f35b34801561017957600080fd5b506101826103f9565b60405161018f919061069b565b60405180910390f35b3480156101a457600080fd5b506101ad610403565b6040516101ba9190610679565b60405180910390f35b3480156101cf57600080fd5b506101d8610491565b6040516101e5919061065e565b60405180910390f35b6101f66104b7565b005b34801561020457600080fd5b5061020d610601565b60405161021a919061069b565b60405180910390f35b6000805461023090610741565b80601f016020809104026020016040519081016040528092919081815260200182805461025c90610741565b80156102a95780601f1061027e576101008083540402835291602001916102a9565b820191906000526020600020905b81548152906001019060200180831161028c57829003601f168201915b505050505081565b600560009054906101000a900473ffffffffffffffffffffffffffffffffffffffff1681565b600180546102e490610741565b80601f016020809104026020016040519081016040528092919081815260200182805461031090610741565b801561035d5780601f106103325761010080835404028352916020019161035d565b820191906000526020600020905b81548152906001019060200180831161034057829003601f168201915b505050505081565b60045481565b6003805461037890610741565b80601f01602080910402602001604051908101604052809291908181526020018280546103a490610741565b80156103f15780601f106103c6576101008083540402835291602001916103f1565b820191906000526020600020905b8154815290600101906020018083116103d457829003601f168201915b505050505081565b6000600754905090565b6002805461041090610741565b80601f016020809104026020016040519081016040528092919081815260200182805461043c90610741565b80156104895780601f1061045e57610100808354040283529160200191610489565b820191906000526020600020905b81548152906001019060200180831161046c57829003601f168201915b505050505081565b600660009054906101000a900473ffffffffffffffffffffffffffffffffffffffff1681565b6000349050600160075414801561051c5750600560009054906101000a900473ffffffffffffffffffffffffffffffffffffffff1673ffffffffffffffffffffffffffffffffffffffff163373ffffffffffffffffffffffffffffffffffffffff1614155b156105c75733600660006101000a81548173ffffffffffffffffffffffffffffffffffffffff021916908373ffffffffffffffffffffffffffffffffffffffff160217905550600560009054906101000a900473ffffffffffffffffffffffffffffffffffffffff1673ffffffffffffffffffffffffffffffffffffffff166108fc829081150290604051600060405180830381858888f193505050505060006007819055506105fe565b3373ffffffffffffffffffffffffffffffffffffffff166108fc829081150290604051600060405180830381858888f19350505050505b50565b60075481565b610610816106d2565b82525050565b6000610621826106b6565b61062b81856106c1565b935061063b81856020860161070e565b610644816107a2565b840191505092915050565b61065881610704565b82525050565b60006020820190506106736000830184610607565b92915050565b600060208201905081810360008301526106938184610616565b905092915050565b60006020820190506106b0600083018461064f565b92915050565b600081519050919050565b600082825260208201905092915050565b60006106dd826106e4565b9050919050565b600073ffffffffffffffffffffffffffffffffffffffff82169050919050565b6000819050919050565b60005b8381101561072c578082015181840152602081019050610711565b8381111561073b576000848401525b50505050565b6000600282049050600182168061075957607f821691505b6020821081141561076d5761076c610773565b5b50919050565b7f4e487b7100000000000000000000000000000000000000000000000000000000600052602260045260246000fd5b6000601f19601f830116905091905056fea2646970667358221220fcba5d9c723585888e6c7908db716e353ef23aef0019b9756a1ea79d2055315e64736f6c63430008010033a26469706673582212202db280f2f15780ad649d677c5e010e5c04212e55991bb83596ee618616b48f5164736f6c63430008010033",
  "immutableReferences": {},
  "source": "pragma solidity ^0.8.1;\r\n\r\nimport \"./Room.sol\";\r\n\r\ncontract RoomFactory {\r\n   uint256 constant maxLimit = 20;\r\n   Room[] public rooms;\r\n\r\n    function createRoom(\r\n        string memory name,\r\n        string memory url,\r\n        string memory imageURL,\r\n        string memory description,\r\n        uint256 roomPrice\r\n        \r\n    )\r\n        public\r\n    {\r\n        Room room = new Room(\r\n            name,\r\n            url,\r\n            imageURL,\r\n            description,\r\n            roomPrice,\r\n            payable(msg.sender)\r\n        );\r\n        rooms.push(room);\r\n    }\r\n\r\n    function roomsCount() public view returns(uint256) {\r\n        return rooms.length;\r\n    }\r\n\r\n   \r\n    function getRooms() public  returns(Room[] memory)\r\n    {\r\n        return rooms;\r\n    }\r\n}\r\n",
  "sourcePath": "C:/Users/Acer/Desktop/cn456/hoscdev/chapter-10+11/contracts/RoomFactory.sol",
  "compiler": {
    "name": "solc",
    "version": "0.8.1+commit.df193b15.Emscripten.clang"
  },
  "schemaVersion": "3.4.0",
  "updatedAt": "2021-06-18T14:43:28.083Z",
  "networkType": "ethereum",
  "devdoc": {
    "kind": "dev",
    "methods": {},
    "version": 1
  },
  "userdoc": {
    "kind": "user",
    "methods": {},
    "version": 1
  }
}