{
  "contractName": "Room",
  "abi": [
    {
      "inputs": [
        {
          "internalType": "string",
          "name": "_name",
          "type": "string"
        },
        {
          "internalType": "string",
          "name": "_url",
          "type": "string"
        },
        {
          "internalType": "string",
          "name": "_imageURL",
          "type": "string"
        },
        {
          "internalType": "string",
          "name": "_description",
          "type": "string"
        },
        {
          "internalType": "uint256",
          "name": "_roomPrice",
          "type": "uint256"
        },
        {
          "internalType": "address payable",
          "name": "_beneficiary",
          "type": "address"
        }
      ],
      "stateMutability": "payable",
      "type": "constructor"
    },
    {
      "inputs": [],
      "name": "beneficiary",
      "outputs": [
        {
          "internalType": "address payable",
          "name": "",
          "type": "address"
        }
      ],
      "stateMutability": "view",
      "type": "function"
    },
    {
      "inputs": [],
      "name": "booker",
      "outputs": [
        {
          "internalType": "address payable",
          "name": "",
          "type": "address"
        }
      ],
      "stateMutability": "view",
      "type": "function"
    },
    {
      "inputs": [],
      "name": "description",
      "outputs": [
        {
          "internalType": "string",
          "name": "",
          "type": "string"
        }
      ],
      "stateMutability": "view",
      "type": "function"
    },
    {
      "inputs": [],
      "name": "imageURL",
      "outputs": [
        {
          "internalType": "string",
          "name": "",
          "type": "string"
        }
      ],
      "stateMutability": "view",
      "type": "function"
    },
    {
      "inputs": [],
      "name": "name",
      "outputs": [
        {
          "internalType": "string",
          "name": "",
          "type": "string"
        }
      ],
      "stateMutability": "view",
      "type": "function"
    },
    {
      "inputs": [],
      "name": "roomPrice",
      "outputs": [
        {
          "internalType": "uint256",
          "name": "",
          "type": "uint256"
        }
      ],
      "stateMutability": "view",
      "type": "function"
    },
    {
      "inputs": [],
      "name": "roomState",
      "outputs": [
        {
          "internalType": "uint256",
          "name": "",
          "type": "uint256"
        }
      ],
      "stateMutability": "view",
      "type": "function"
    },
    {
      "inputs": [],
      "name": "url",
      "outputs": [
        {
          "internalType": "string",
          "name": "",
          "type": "string"
        }
      ],
      "stateMutability": "view",
      "type": "function"
    },
    {
      "inputs": [],
      "name": "getRoomState",
      "outputs": [
        {
          "internalType": "uint256",
          "name": "",
          "type": "uint256"
        }
      ],
      "stateMutability": "view",
      "type": "function"
    },
    {
      "inputs": [],
      "name": "payRoom",
      "outputs": [],
      "stateMutability": "payable",
      "type": "function"
    }
  ],
  "bytecode": "0x608060405260405162000d0e38038062000d0e833981810160405281019062000029919062000239565b856000908051906020019062000041929190620000e9565b5084600190805190602001906200005a929190620000e9565b50836002908051906020019062000073929190620000e9565b5082600390805190602001906200008c929190620000e9565b508160048190555080600560006101000a81548173ffffffffffffffffffffffffffffffffffffffff021916908373ffffffffffffffffffffffffffffffffffffffff160217905550600160078190555050505050505062000515565b828054620000f79062000406565b90600052602060002090601f0160209004810192826200011b576000855562000167565b82601f106200013657805160ff191683800117855562000167565b8280016001018555821562000167579182015b828111156200016657825182559160200191906001019062000149565b5b5090506200017691906200017a565b5090565b5b80821115620001955760008160009055506001016200017b565b5090565b6000620001b0620001aa846200035c565b62000333565b905082815260208101848484011115620001c957600080fd5b620001d6848285620003d0565b509392505050565b600081519050620001ef81620004e1565b92915050565b600082601f8301126200020757600080fd5b81516200021984826020860162000199565b91505092915050565b6000815190506200023381620004fb565b92915050565b60008060008060008060c087890312156200025357600080fd5b600087015167ffffffffffffffff8111156200026e57600080fd5b6200027c89828a01620001f5565b965050602087015167ffffffffffffffff8111156200029a57600080fd5b620002a889828a01620001f5565b955050604087015167ffffffffffffffff811115620002c657600080fd5b620002d489828a01620001f5565b945050606087015167ffffffffffffffff811115620002f257600080fd5b6200030089828a01620001f5565b93505060806200031389828a0162000222565b92505060a06200032689828a01620001de565b9150509295509295509295565b60006200033f62000352565b90506200034d82826200043c565b919050565b6000604051905090565b600067ffffffffffffffff8211156200037a5762000379620004a1565b5b6200038582620004d0565b9050602081019050919050565b60006200039f82620003a6565b9050919050565b600073ffffffffffffffffffffffffffffffffffffffff82169050919050565b6000819050919050565b60005b83811015620003f0578082015181840152602081019050620003d3565b8381111562000400576000848401525b50505050565b600060028204905060018216806200041f57607f821691505b6020821081141562000436576200043562000472565b5b50919050565b6200044782620004d0565b810181811067ffffffffffffffff82111715620004695762000468620004a1565b5b80604052505050565b7f4e487b7100000000000000000000000000000000000000000000000000000000600052602260045260246000fd5b7f4e487b7100000000000000000000000000000000000000000000000000000000600052604160045260246000fd5b6000601f19601f8301169050919050565b620004ec8162000392565b8114620004f857600080fd5b50565b6200050681620003c6565b81146200051257600080fd5b50565b6107e980620005256000396000f3fe6080604052600436106100915760003560e01c8063ad34d96d11610059578063ad34d96d1461016d578063b90497e014610198578063c398e9b2146101c3578063c9dc0556146101ee578063dff7373a146101f857610091565b806306fdde031461009657806338af3eed146100c15780635600f04f146100ec5780636c036162146101175780637284e41614610142575b600080fd5b3480156100a257600080fd5b506100ab610223565b6040516100b89190610679565b60405180910390f35b3480156100cd57600080fd5b506100d66102b1565b6040516100e3919061065e565b60405180910390f35b3480156100f857600080fd5b506101016102d7565b60405161010e9190610679565b60405180910390f35b34801561012357600080fd5b5061012c610365565b604051610139919061069b565b60405180910390f35b34801561014e57600080fd5b5061015761036b565b6040516101649190610679565b60405180910390f35b34801561017957600080fd5b506101826103f9565b60405161018f919061069b565b60405180910390f35b3480156101a457600080fd5b506101ad610403565b6040516101ba9190610679565b60405180910390f35b3480156101cf57600080fd5b506101d8610491565b6040516101e5919061065e565b60405180910390f35b6101f66104b7565b005b34801561020457600080fd5b5061020d610601565b60405161021a919061069b565b60405180910390f35b6000805461023090610741565b80601f016020809104026020016040519081016040528092919081815260200182805461025c90610741565b80156102a95780601f1061027e576101008083540402835291602001916102a9565b820191906000526020600020905b81548152906001019060200180831161028c57829003601f168201915b505050505081565b600560009054906101000a900473ffffffffffffffffffffffffffffffffffffffff1681565b600180546102e490610741565b80601f016020809104026020016040519081016040528092919081815260200182805461031090610741565b801561035d5780601f106103325761010080835404028352916020019161035d565b820191906000526020600020905b81548152906001019060200180831161034057829003601f168201915b505050505081565b60045481565b6003805461037890610741565b80601f01602080910402602001604051908101604052809291908181526020018280546103a490610741565b80156103f15780601f106103c6576101008083540402835291602001916103f1565b820191906000526020600020905b8154815290600101906020018083116103d457829003601f168201915b505050505081565b6000600754905090565b6002805461041090610741565b80601f016020809104026020016040519081016040528092919081815260200182805461043c90610741565b80156104895780601f1061045e57610100808354040283529160200191610489565b820191906000526020600020905b81548152906001019060200180831161046c57829003601f168201915b505050505081565b600660009054906101000a900473ffffffffffffffffffffffffffffffffffffffff1681565b6000349050600160075414801561051c5750600560009054906101000a900473ffffffffffffffffffffffffffffffffffffffff1673ffffffffffffffffffffffffffffffffffffffff163373ffffffffffffffffffffffffffffffffffffffff1614155b156105c75733600660006101000a81548173ffffffffffffffffffffffffffffffffffffffff021916908373ffffffffffffffffffffffffffffffffffffffff160217905550600560009054906101000a900473ffffffffffffffffffffffffffffffffffffffff1673ffffffffffffffffffffffffffffffffffffffff166108fc829081150290604051600060405180830381858888f193505050505060006007819055506105fe565b3373ffffffffffffffffffffffffffffffffffffffff166108fc829081150290604051600060405180830381858888f19350505050505b50565b60075481565b610610816106d2565b82525050565b6000610621826106b6565b61062b81856106c1565b935061063b81856020860161070e565b610644816107a2565b840191505092915050565b61065881610704565b82525050565b60006020820190506106736000830184610607565b92915050565b600060208201905081810360008301526106938184610616565b905092915050565b60006020820190506106b0600083018461064f565b92915050565b600081519050919050565b600082825260208201905092915050565b60006106dd826106e4565b9050919050565b600073ffffffffffffffffffffffffffffffffffffffff82169050919050565b6000819050919050565b60005b8381101561072c578082015181840152602081019050610711565b8381111561073b576000848401525b50505050565b6000600282049050600182168061075957607f821691505b6020821081141561076d5761076c610773565b5b50919050565b7f4e487b7100000000000000000000000000000000000000000000000000000000600052602260045260246000fd5b6000601f19601f830116905091905056fea2646970667358221220fcba5d9c723585888e6c7908db716e353ef23aef0019b9756a1ea79d2055315e64736f6c63430008010033",
  "immutableReferences": {},
  "source": "pragma solidity ^0.8.1;\n\n//import \"openzeppelin-contracts/access/Ownable.sol\";\nimport \"openzeppelin-contracts/math/Safemath.sol\";\n\ncontract  Room   {\n    using SafeMath for uint256;\n\n    string public name;\n    string public url;\n    string public imageURL;\n    string public description;\n    uint256 public roomPrice;\n    address payable public beneficiary;\n    address payable public booker;\n    uint256 public roomState; \n    \n\n    constructor(\n        string memory _name,\n        string memory _url,\n        string memory _imageURL,\n        string memory _description,\n        uint256 _roomPrice,\n        address payable _beneficiary\n    )\n        public payable\n    {\n        name = _name;\n        url = _url;\n        imageURL = _imageURL;\n        description = _description;\n        roomPrice = _roomPrice;\n        beneficiary = _beneficiary;\n        roomState = 1;\n    }\n\n    \n    function getRoomState() public view returns(uint256) {\n        return roomState;\n    }\n    \n    function payRoom() public payable {\n        \n        uint256 payRoom = msg.value;\n        if (roomState == 1 && msg.sender != beneficiary ){\n            booker = payable(msg.sender);\n            beneficiary.send(payRoom);\n            roomState = 0;\n        }\n        else{\n            payable(msg.sender).send(payRoom); \n        }\n        \n    }\n\n\n}\n",
  "sourcePath": "C:\\Users\\Acer\\Desktop\\cn456\\hoscdev\\chapter-10+11\\contracts\\Room.sol",
  "compiler": {
    "name": "solc",
    "version": "0.8.1+commit.df193b15.Emscripten.clang"
  },
  "schemaVersion": "3.4.0",
  "updatedAt": "2021-06-18T14:43:25.428Z",
  "devdoc": {
    "kind": "dev",
    "methods": {},
    "version": 1
  },
  "userdoc": {
    "kind": "user",
    "methods": {},
    "version": 1
  }
}